:020000040800F2
:1000000000000220D91800081D0800081F08000879
:100010002108000823080008250800080000000047
:100020000000000000000000000000002708000899
:1000300029080008000000002B0800082D0800080F
:100040002919000829190008291900082919000888
:100050002919000829190008291900082919000878
:100060002919000829190008291900082919000868
:100070002919000829190008291900082919000858
:100080002919000829190008291900080000000092
:100090000000000000000000000000002919000816
:1000A0002919000829190008291900082919000828
:1000B0002919000829190008291900082919000818
:1000C0002919000829190008291900082919000808
:1000D0002919000829190008291900080000000042
:1000E0002919000829190008291900080000000032
:1000F00000000000000000000000000029190008B6
:100100000000000029190008291900082919000811
:1001100000000000000000000000000000000000DF
:1001200029190008291900082919000829190008A7
:100130002919000800000000000000000000000075
:100140000000000000000000000000002919000865
:100150002919000829190008291900082919000877
:1001600029190008291900080000000000000000FB
:10017000000000000000000000000000000000007F
:100180000000000029190008000000000000000025
:080190002919000829190008D3
:1001980010B5054C237833B9044B13B10448AFF3B9
:1001A80000800123237010BD0C0000200000000017
:1001B8008419000808B5034B1BB103490348AFF382
:1001C800008008BD0000000010000020841900080D
:1001D80053B94AB9002908BF00281CBF4FF0FF31A6
:1001E8004FF0FF3000F06EB9ADF1080C6DE904CEA8
:1001F80000F006F8DDF804E0DDE9022304B07047FA
:100208002DE9F047089D04468C46002B40F083807A
:100218008A42174647D9B2FA82F242B1C2F12000A7
:1002280024FA00F09140974040EA010C94404FEACC
:100238001748230CBCFBF8F61FFA87FE08FB16C10B
:1002480043EA014306FB0EF1994209D9FB1806F16E
:10025800FF3080F01981994240F21681023E3B44FA
:100268005B1AA4B2B3FBF8F008FB103344EA03446A
:1002780000FB0EFEA64509D93C1900F1FF3380F0BA
:100288000581A64540F2028102383C4440EA064016
:10029800A4EB0E0400261DB1D4400023C5E9004399
:1002A8003146BDE8F08702B9FFDEB2FA82F2002AD1
:1002B80050D1CB1B4FEA174E1FFA87F80126B3FB24
:1002C800FEFC210C0EFB1C3341EA034108FB0CF336
:1002D8008B4207D979180CF1FF3002D28B4200F219
:1002E800E9808446C91AA3B2B1FBFEF00EFB1011D7
:1002F80043EA014408FB00F8A04507D93C1900F17E
:10030800FF3302D2A04500F2D9801846A4EB0804B6
:1003180040EA0C40BFE78B4209D9002D00F0B180BC
:100328000026C5E9000130463146BDE8F087B3FA3A
:1003380083F6002E4AD18B4202D3824200F2B88063
:10034800841A61EB030101208C46002DA8D0C5E971
:10035800004CA5E7C2F1200320FA03F6974001FA02
:1003680002F04FEA174ED9403043030CB1FBFEF6BA
:100378001FFA87F80EFB161143EA014306FB08F142
:10038800994204FA02F409D9FB1806F1FF3C80F0FF
:100398008D80994240F28A80023E3B445B1A81B2CA
:1003A800B3FBFEF00EFB103341EA034100FB08F3F8
:1003B8008B4207D9791800F1FF3C73D28B4271D96F
:1003C80002383944CB1A40EA064678E7C6F1200CD1
:1003D80003FA06F422FA0CF31C4320FA0CF701FA8C
:1003E80006F34FEA144E21FA0CF11F433B0CB1FB04
:1003F800FEF91FFA84F80EFB191143EA014109FBC3
:1004080008FA8A4502FA06F200FA06F308D96118D2
:1004180009F1FF3048D28A4546D9A9F10209214499
:10042800A1EB0A01BFB2B1FBFEF00EFB101147EAC7
:10043800014700FB08F8B84507D9E71900F1FF3173
:100448002ED2B8452CD90238274440EA0940A7EBF8
:100458000807A0FB02894F45C64649461AD317D05C
:100468005DB1B3EB0E0267EB010707FA0CFCF24033
:100478004CEA0202F740C5E9002700263146BDE8EC
:10048800F0872E4628460BE70646E9E61846FDE6BD
:100498004345E5D2B8EB020E69EB04010138DFE70A
:1004A8000846D2E760468DE78146B9E7664675E7B4
:1004B80030464AE7ACF1020C394413E702383C44B1
:1004C80024E700BF704700BF08B500224FF4005171
:1004D800014801F081F808BD0008024072B6FEE745
:1004E80000B595B03022002108A801F03FFA00239A
:1004F8000393049305930693079301931E4A116C83
:1005080041F080511164126C02F080520192019AFC
:1005180002931A4A116841F440411160126802F4CA
:1005280040420292029A0222089201210B91102164
:100538000C910E920F930823109348231193129253
:100548000423139308A800F04DFC80B90F230393EC
:1005580002210491002305934FF4805206920793D9
:1005680003A800F08BFE20B915B05DF804FBFFF777
:10057800B5FFFFF7B3FF00BF00380240007000402E
:1005880008B501F0B1F8FFF7ABFF00F007F800F08D
:100598008FF800F0EBF8FFF797FFFEE7F0B589B0AA
:1005A80000240394049405940694079401941C4B26
:1005B8001A6B42F004021A631A6B02F004020192E9
:1005C800019A02941A6B42F001021A631B6B03F042
:1005D80001030293029B134F22464FF40051384601
:1005E80000F0FAFF104D2246F821284600F0F4FFEB
:1005F8004FF400530393012604960594069403A927
:10060800384600F011FFF82303930496022305935C
:10061800069403A9284600F007FF09B0F0BD00BF03
:100628000038024000080240000002400368B3F1AD
:10063800804F00D0704782B000230193054B1A6C9D
:1006480042F001021A641B6C03F001030193019B41
:1006580002B070470038024000B587B0002301930C
:1006680002930393049305930368B3F1804F02D078
:1006780007B05DF804FB0021009103F50E331A6BF7
:1006880042F001021A631B6B03F001030093009B05
:1006980003230193022302930393049101230593F7
:1006A80001A9024800F0C0FEE2E700BF00000240D6
:1006B80000B58FB000230A930B930C930D93089306
:1006C8000993019302930393049305930693079365
:1006D80025484FF0804202604722426083606322CF
:1006E800C2600361836100F0BDF958BB4FF48053C9
:1006F8000A930AA91C4800F0B9FA30BB1A4800F05E
:10070800DDF928BB00230893099308A9164800F0CF
:100718002DFB00BB602301930022029203920592F5
:1007280001A9114800F028FAC0B904220DEB020112
:100738000D4800F021FAA0B90B48FFF78DFF0FB064
:100748005DF804FBFFF7CAFED0E7FFF7C7FED5E761
:10075800FFF7C4FED6E7FFF7C1FEDBE7FFF7BEFEF3
:10076800E3E7FFF7BBFEE7E72800002008B50A48E3
:100778000A4B03604FF4E133436000238360C36096
:1007880003610C2242618361C36101F067F800B91B
:1007980008BDFFF7A3FEFBE7700000200010014032
:1007A80000B589B000230393049305930693079338
:1007B800026803F1804303F588339A4202D009B0F6
:1007C8005DF804FB0022019203F59433596C41F063
:1007D80010015964596C01F01001019101990292BC
:1007E800196B41F0010119631B6B03F001030293BC
:1007F800029B4FF4C06303930223049305920323DF
:1008080006930723079303A9014800F00DFED6E7D6
:1008180000000240FEE7FEE7FEE7FEE7FEE770475E
:100828007047704708B500F079FF08BD82B0002115
:1008380000910B4B5A6C42F480425A645A6C02F491
:1008480080420092009A01911A6C42F080521A6418
:100858001B6C03F080530193019B02B0704700BFEB
:100868000038024070B4036A23F001030362036A8C
:100878004668826922F073020C6844EA020523F094
:1008880002028B6813430D4CA04209D00B4CA042C6
:100898000DD0466085614A684263036270BC704748
:1008A80023F00803CA68134323F00403EEE726F491
:1008B80040764A6932438E691643EAE700000140F0
:1008C80030B4036A23F480730362036A4568C2691B
:1008D80022F073020C68224323F400738C6843EA05
:1008E80004230F4CA04209D00D4CA0420ED0456005
:1008F800C2614A68C263036230BC704723F4006374
:10090800CC6843EA042323F48063EDE725F44055DB
:100918004C6945EA04158C6945EA0415E7E700BF08
:100928000000014030B4036A23F480530362036A71
:100938004468C26922F4E6420D6842EA052223F4BB
:1009480000538D6843EA0533074DA84206D044603A
:10095800C2614A680264036230BC704724F4804470
:100968004D6944EA8514F2E70000014030B4036A97
:10097800056A25F001050562846924F0F00444EA5B
:10098800021423F00A030B438461036230BC7047EE
:1009980030B4056A25F0100505628469036A24F4F9
:1009A800704444EA023423F0A00343EA011384614B
:1009B800036230BC7047836823F070030B4343F035
:1009C80007038360704770470368254A90420ED03A
:1009D800B0F1804F0BD0A2F57C42904207D002F5CF
:1009E8008062904203D002F58062904203D123F0E6
:1009F80070034A6813431A4A90421AD0B0F1804FE4
:100A080017D0A2F57C42904213D002F58062904242
:100A18000FD002F5806290420BD002F59A329042D4
:100A280007D002F58062904203D002F580629042BE
:100A380003D123F44073CA68134323F080034A693F
:100A4800134303608B68C3620B688362044B98424C
:100A580002D00123436170470B690363F9E700BFC4
:100A68000000014040B310B5044690F83D30F3B1A2
:100A7800022384F83D30214651F8040BFFF7A4FF08
:100A8800012384F8463084F83E3084F83F3084F8F7
:100A9800403084F8413084F8423084F8433084F898
:100AA800443084F8453084F83D30002010BD80F88B
:100AB8003C30FFF7BBFDDBE70120704740B310B5C2
:100AC800044690F83D30F3B1022384F83D302146C6
:100AD80051F8040BFFF778FF012384F8463084F8B7
:100AE8003E3084F83F3084F8403084F8413084F850
:100AF800423084F8433084F8443084F8453084F830
:100B08003D30002010BD80F83C30FFF75CFFDBE78C
:100B18000120704730B4036A23F010030362036AAC
:100B28004468826922F4E6420D6842EA052223F00D
:100B380020038D6843EA05130E4DA84209D00D4DD8
:100B4800A8420ED0446082614A688263036230BC66
:100B5800704723F08003CD6843EA051323F0400370
:100B6800EDE724F440644D6944EA85048D6944EA5C
:100B78008504E7E70000014038B590F83C30012BC8
:100B880066D004460D46012380F83C300C2A5AD81A
:100B9800DFE802F0075959591B5959593059595921
:100BA80044000068FFF75EFE2268936943F008037B
:100BB80093612268936923F004039361226893691F
:100BC80029690B43936100203EE00068FFF7A2FF0C
:100BD8002268936943F4006393612268936923F45C
:100BE8008063936122689369296943EA01239361C9
:100BF800002029E00068FFF763FE2268D36943F00C
:100C08000803D3612268D36923F00403D3612268FF
:100C1800D36929690B43D361002015E00068FFF709
:100C280081FE2268D36943F40063D3612268D369E3
:100C380023F48063D3612268D369296943EA0123D5
:100C4800D361002000E00120002384F83C3038BD47
:100C58000220FCE710B4846824F47F4442EA0322AB
:100C68000A43224382605DF8044B704790F83C3099
:100C7800012B78D010B50446012380F83C300223BC
:100C880080F83D300268936823F47F4323F07703AC
:100C980093600B68602B4CD029D8402B54D00CD9CA
:100CA800502B22D1CA6849680068FFF75FFE5021BF
:100CB8002068FFF780FE002005E0202B0DD009D921
:100CC800302B0AD00120012384F83D30002384F81A
:100CD8003C3010BD0BB1102B05D119462068FFF729
:100CE8006AFE0020EFE70120EDE70120EBE7B3F50E
:100CF800805F34D0B3F5005F0CD1CB684A6889684F
:100D08000068FFF7A7FF2268936843F48043936065
:100D18000020D8E7702B24D1CB684A68896800681E
:100D2800FFF798FF2268936843F0770393600020E9
:100D3800C9E7CA6849680068FFF72AFE6021206889
:100D4800FFF739FE0020BEE7CA6849680068FFF768
:100D58000DFE40212068FFF72EFE0020B3E700209B
:100D6800B1E70120AFE702207047000090F83C305F
:100D7800012B33D030B4012380F83C30022380F8B3
:100D88003D3003685C689D6824F070040A6822435B
:100D98005A600368124A934212D0B3F1804F0FD0C1
:100DA800A2F57C4293420BD002F58062934207D0B1
:100DB80002F58062934203D002F59A32934204D13D
:100DC80025F080054A6815439D60012380F83D3071
:100DD800002380F83C30184630BC7047022070472A
:100DE80000000140002800F0DF8170B582B00446A1
:100DF800036813F0010F3BD0A64B9B6803F00C036C
:100E0800042B2CD0A34B9B6803F00C03082B21D098
:100E18006368B3F5803F4FD0B3F5A02F52D09D4BF8
:100E28001A6822F480321A601A6822F480221A6042
:100E38006368002B50D000F07DFC0546954B1B687D
:100E480013F4003F14D100F075FC401B6428F5D959
:100E58000320B0E18F4B5B6813F4800FD8D08D4B23
:100E68001B6813F4003F03D06368002B00F09E81D9
:100E7800236813F0020F54D0864B9B6813F00C0FB5
:100E88003ED0844B9B6803F00C03082B33D0E368F7
:100E9800002B67D0804B01221A6000F04BFC0546FE
:100EA8007C4B1B6813F0020F53D100F043FC401B2E
:100EB8000228F5D903207EE1764A136843F480338B
:100EC8001360B5E7734B1A6842F480221A601A68F7
:100ED80042F480321A60ABE700F02CFC05466D4BFB
:100EE8001B6813F4003FC3D000F024FC401B6428A7
:100EF800F5D903205FE1674B5B6813F4800FC6D117
:100F0800644B1B6813F0020F03D0E368012B40F019
:100F18004F81604A136823F0F803216943EAC1034B
:100F28001360236813F0080F40D0636963B35B4B09
:100F380001221A6000F0FEFB0546564B5B6F13F06A
:100F4800020F33D100F0F6FB401B0228F5D903202D
:100F580031E1504A136823F0F803216943EAC103D9
:100F68001360DEE74C4B00221A6000F0E3FB0546F5
:100F7800484B1B6813F0020FD3D000F0DBFB401B7B
:100F88000228F5D9032016E1444B00221A6000F02C
:100F9800D1FB05463F4B5B6F13F0020F06D000F004
:100FA800C9FB401B0228F5D9032004E1236813F08C
:100FB800040F78D0374B1B6C13F0805F0DD10023E2
:100FC8000193344B1A6C42F080521A641B6C03F084
:100FD80080530193019B012500E00025304B1B68DD
:100FE80013F4807F21D0A368012B32D0052B36D093
:100FF800284B1A6F22F001021A671A6F22F00402B6
:101008001A67A368002B34D000F094FB0646214BE6
:101018001B6F13F0020F45D100F08CFB801B41F2CF
:1010280088339842F3D90320C5E01D4A136843F476
:101038008073136000F07EFB0646194B1B6813F49F
:10104800807FD0D100F076FB801B0228F5D90320E1
:10105800B1E0104A136F43F001031367D1E70D4B5A
:101068001A6F42F004021A671A6F42F001021A67F7
:10107800C7E700F05FFB0646064B1B6F13F0020F35
:1010880010D000F057FB801B41F288339842F3D907
:10109800032090E00038024000004742800E47429B
:1010A80000700040EDB9A369002B00F08380494A25
:1010B800926802F00C02082A51D0022B17D0464B36
:1010C80000221A6000F036FB0446424B1B6813F0FE
:1010D800007F42D000F02EFB001B0228F5D9032028
:1010E80069E03C4A136C23F080531364DBE73A4B06
:1010F80000221A6000F01EFB0546364B1B6813F0F1
:10110800007F06D000F016FB401B0228F5D903200B
:1011180051E0E369226A1343626A43EA8213A26ACE
:101128005208013A43EA0243E26A43EA0263294A5F
:101138005360294B01221A6000F0FCFA0446254B43
:101148001B6813F0007F06D100F0F4FA001B022898
:10115800F5D903202FE000202DE000202BE0012B03
:101168002BD01C4B5B6803F48001E269914226D1C5
:1011780003F03F02216A8A4223D1616A47F6C072AE
:101188001A40B2EB811F1ED103F44031A26A520803
:10119800013AB1EB024F18D103F07063E26AB3EB86
:1011A800026F14D1002006E001207047012002E000
:1011B800012000E0002002B070BD0120FBE7012003
:1011C800F9E70120F7E70120F5E70120F3E701201F
:1011D800F1E700BF0038024060004742F8B5244BF1
:1011E8009B6803F00C03042B3DD0082B3DD1204B0A
:1011F8005A6802F03F025B6813F4800F12D01C4B50
:101208005968C1F3881100231A48A1FB0001FEF7B1
:10121800DFFF174B5B68C3F3014301335B00B0FB8F
:10122800F3F023E0124B5B68C3F388135C010025DD
:10123800E41A65F10005AE0146EA9466A701381B79
:1012480066EB0501CC0044EA5074C500E81844F187
:1012580000018B0243EA905384022046194600237A
:10126800FEF7B6FFD5E7034800E00348F8BD00BF26
:101278000038024040787D010024F400002800F086
:101288009B8070B50D4604464F4B1B6803F007035F
:101298008B4208D2CBB24C4A1370136803F0070391
:1012A8008B4240F08B80236813F0020F17D013F0A5
:1012B800040F04D0454A936843F4E05393602368CD
:1012C80013F0080F04D0414A936843F460439360D5
:1012D8003E4A936823F0F003A1680B4393602368A8
:1012E80013F0010F32D06368012B21D09A1E012A16
:1012F80025D9364A126812F0020F61D033498A683C
:1013080022F0030213438B6000F014FA06462F4BB9
:101318009B6803F00C036268B3EB820F16D000F0F1
:1013280009FA801B41F288339842F0D9032042E041
:10133800264A126812F4003FE0D101203BE0234A1C
:10134800126812F0007FD9D1012034E01E4B1B68CF
:1013580003F00703AB4207D9EAB21B4B1A701B68AC
:1013680003F00703AB422DD1236813F0040F06D016
:10137800164A936823F4E053E1680B4393602368AB
:1013880013F0080F07D0114A936823F460432169CA
:1013980043EAC1039360FFF721FF0C4B9B68C3F33B
:1013A80003130B4AD35CD8400A4B18600A4B1868E1
:1013B80000F074F9002070BD012070470120FAE7A1
:1013C8000120F8E70120F6E7003C0240003802401F
:1013D8009C1900080800002004000020014B186830
:1013E800704700BF0800002008B5FFF7F7FF044B5F
:1013F8009B68C3F38223034AD35CD84008BD00BF6F
:1014080000380240AC19000808B5FFF7E7FF044BA5
:101418009B68C3F34233034AD35CD84008BD00BF7E
:1014280000380240AC19000800230F2B00F2CB80D3
:10143800F0B482B05DE086685F000324BC4026EA11
:101448000406CC68BC4034438460466826EA020639
:101458004C68C4F300129A403243426057E0DC08FB
:10146800083450F8247003F0070296000F22B240A7
:1014780027EA02070A69B2403A4340F824205AE0B2
:10148800042200E00022B2403A4302344E4E46F8AD
:1014980024204E4A9468EA4324EA05064F6817F464
:1014A800801F01D045EA0406484CA660E46802EAB9
:1014B80004064F6817F4001F01D045EA0406434CA0
:1014C800E660646802EA04064F6817F4003F01D03A
:1014D80045EA04063D4C6660246822404E6816F4CE
:1014E800803F01D045EA0402384C226001330F2BBB
:1014F80066D801229A400C6804EA020532EA04041C
:10150800F4D14C6804F00304013C012C93D94A68D7
:1015180002F00302032A09D0C4685E000322B24025
:1015280024EA02048A68B2402243C2604A6802F090
:101538000302022A93D004685E000322B24024EA20
:1015480002044A6802F00302B240224302604A6879
:1015580012F4403FCAD0002201921D4A546C44F450
:1015680080445464526C02F480420192019A9C08AF
:10157800A61C154A52F8267003F0030296000F22A3
:10158800B24027EA0207134A90423FF47BAF02F5C4
:10159800806290420ED002F5806290420CD002F533
:1015A800806290420AD002F5806290423FF468AFB0
:1015B800072268E7012266E7022264E7032262E75E
:1015C80002B0F0BC7047704700380140003C014051
:1015D80000380240000002400AB1816170470904E6
:1015E80081617047074AD36823F4E0631B041B0C2E
:1015F800000200F4E060034343F0BF6343F40033A8
:10160800D360704700ED00E030B4174BDB68C3F3DC
:101618000223C3F10704042C28BF04241D1D062D32
:1016280018D9033B4FF0FF3505FA04F421EA040109
:10163800994005FA03F322EA0303194300280BDB58
:101648000901C9B200F1604000F5614080F800135B
:1016580030BC70470023E5E700F00F000901C9B26C
:10166800024B1954F4E700BF00ED00E014ED00E070
:101678000138B0F1807F0AD2064B5860064AF02143
:1016880082F823100020986007221A607047012012
:10169800704700BF10E000E000ED00E010B5044620
:1016A8000E4B18784FF47A73B3FBF0F30C4A1068BA
:1016B800B0FBF3F0FFF7DCFF68B90F2C01D901206C
:1016C8000AE0002221464FF0FF30FFF79DFF054B4F
:1016D8001C60002000E0012010BD00BF00000020B9
:1016E800080000200400002008B50B4B1A6842F4DB
:1016F80000721A601A6842F480621A601A6842F42A
:1017080080721A600320FFF76DFF0F20FFF7C6FFF6
:10171800FFF78CF8002008BD003C0240034A11681E
:10172800034B1B780B441360704700BFB4000020C4
:1017380000000020014B1868704700BFB40000206B
:1017480070B504460268136923F44053C1680B431B
:10175800136183680269134342691343C2691A43D8
:101768000168CB6823F4164323F00C031343CB60C2
:101778000268536923F4407381690B43536103681A
:10178800344A934206D002F58062934202D0FFF7B2
:101798002BFE01E0FFF738FEE369B3F5004F2AD0CE
:1017A8000026051846EB06012D1846EB0101CB0073
:1017B80043EA5573EA001546194663689A009B0F79
:1017C800281846EB0101FEF703FD234DA5FB003267
:1017D8005109642303FB11031B013233A5FB0323C7
:1017E8005B0903F0F00202EB011203F00F0321681A
:1017F80013448B6070BD0026051846EB06012D18B2
:1018080046EB0101CB0043EA5573EA001546194639
:1018180062683346921846EB0303281846EB010129
:10182800FEF7D6FC0C4DA5FB00325109642303FBDF
:101838001103DB003233A5FB03235B095A0002F4D2
:10184800F87202EB011203F00703216813448B605E
:10185800D0E700BF001001401F85EB5158B310B509
:10186800044690F83D300BB3242384F83D302268B9
:10187800D36823F40053D3602046FFF761FF226842
:10188800136923F4904313612268536923F02A03F0
:1018980053612268D36843F40053D3600020206466
:1018A800202384F83D3084F83E3010BD80F83C3069
:1018B800FEF776FFD8E7012070470000034AD2F808
:1018C800883043F47003C2F88830704700ED00E0B8
:1018D800DFF834D00D480E490E4A002302E0D458F0
:1018E800C4500433C4188C42F9D30B4A0B4C002360
:1018F80001E013600432A242FBD3FFF7DFFF00F0E0
:1019080011F8FEF73DFE704700000220000000209D
:101918000C000020C41900080C000020B8000020AA
:10192800FEE7000070B50D4D0D4C641BA410002699
:10193800A64209D10B4D0C4C00F020F8641BA410F2
:101948000026A64205D170BD55F8043B98470136DC
:10195800EEE755F8043B98470136F2E7BC19000852
:10196800BC190008BC190008C01900080244034645
:10197800934200D1704703F8011BF9E7F8B500BF9F
:10198800F8BC08BC9E467047F8B500BFF8BC08BC58
:041998009E467047B0
:10199C000000000000000000010203040607080913
:0819AC00000000000102030429
:0819B40054E8FF7F0100000070
:0419BC00BD01000861
:0419C0009901000881
:0C19C40001000000100000000024F400EE
:04000005080018D9FE
:00000001FF
